:05098A00010801C1009D
:10097100C374FF9FFF74FF9E4389108F8BF58DD247
:090981008E308FFDC28EC28F2260
:10095600AD07AC06ED1DAE0470011C4E60097FE8C4
:0B0966007E0312097180ED8509082254
:0509900012080080FBCD
:10080000E50824FE601514602A1460371460501443
:10081000605A2405705D20B25A805320B30330B271
:1008200005750901800620B303750903309747C297
:1008300000804320B30330B202803820B3387509FA
:1008400004803320B30330B205750901800620B35C
:100850000375090520971F20001C750906801720C5
:10086000B30330B202800C20B30C8002D2007509B1
:10087000028003750901E50814602F14601624FE38
:10088000601614601914602E24037037C290D29140
:10089000D2928010D2908002C290C2918010D290E9
:1008A000D291C2927F887E138016D290D291D2923A
:1008B0007FE87E03800AD290D291C2927F987E3ADE
:0A08C000020956D290D291D2922282
:030000000208CA29
:0C08CA00787FE4F6D8FD7581200209114A
:1008D600020990E493A3F8E493A34003F68001F29F
:1008E60008DFF48029E493A3F85407240CC8C33323
:1008F600C4540F4420C8834004F456800146F6DFF2
:10090600E4800B010204081020408090098AE47EEE
:10091600019360BCA3FF543F30E509541FFEE493E6
:10092600A360010ECF54C025E060A840B8E493A3AD
:10093600FAE493A3F8E493A3C8C582C8CAC583CAD8
:10094600F0A3C8C582C8CAC583CADFE9DEE780BE90
:01098F000067
:00000001FF
